:100000000EC028C027C026C025C024C023C022C0DF
:1000100021C020C01FC01EC01DC01CC01BC0112499
:100020001FBECFE5D1E0DEBFCDBF10E0A0E6B0E05F
:10003000EAEDF1E002C005900D92A83CB107D9F7B6
:1000400020E0A8ECB0E001C01D92AD3CB207E1F7A2
:1000500070D0C1C0D5CF70E0FB01E056FF4F80816A
:1000600088BBFB01EC54FF4F808187BB089517BA12
:1000700018BA0895DF92EF92FF920F931F93CF93D8
:10008000DF937C01D42EDD0CDD0CD40EC0E0D0E07B
:100090008B01040F111DF801208130E00C2E02C0ED
:1000A000220F331F0A94E2F724FF04C06C2F6D0D5A
:1000B000C701D1DF2196C530D10569F7DF91CF9116
:1000C0001F910F91FF90EF90DF900895EF92FF92B4
:1000D0000F931F93CF937C018B01C0E04C2FB8018D
:1000E000C701C8DFCF5FC430C9F7CF911F910F910F
:1000F000FF90EF9008950F931F93CF93DF93122FEC
:10010000FB01A42FB52FEB01A09620813181428104
:10011000538164817581868197813896012F3FD004
:100120002D93EC17FD0789F7DF91CF911F910F9168
:100130000895D4E60FE310E011236CF42AE3200FB6
:1001400049EC50E060E670E088EC90E0D4DF88ECA9
:1001500090E08DDF20C0202F49EC50E060E870E097
:1001600088EC90E0C8DF88EC90E081DF14C069EC97
:1001700070E088EC90E0AADF88EC90E078DFC15076
:10018000B1F701501109093F8FEF1807A9F688EC64
:1001900090E06DDFCFCFCD2FEACF97FB10F816940C
:1001A00000080F93083098F00850232F342F452F64
:1001B000562F672F782F892F902DF4CF0594979580
:1001C00087957795679557954795379527950A951C
:0A01D000AAF70F910895F894FFCFED
:1001DA0000000000000040DD000000000000C01523
:1001EA00000000000000401500000000000040DD93
:1001FA003BEE4E8AAEBAA2AA22E8E48AAA3AA3AA97
:10020A002288488AAA22E3EEBBE84EEE2AB9AAAAB5
:10021A000204011008020401100802040110080275
:10022A00040110080A0C09181812141111090305FF
:08023A0005140C060603120A6C
:00000001FF
