:020000040800F2
:1000000000200020710E0008FF0300080104000812
:1000100000000000000000000000000000000000E0
:1000200000000000000000000000000003040008C1
:10003000000000000000000005040008070400089C
:10004000C10E000800000000C10E0008C10E00082B
:10005000C10E0008C10E0008C10E0008C10E000844
:1000600000000000C10E0008C10E0008C10E00080B
:10007000C10E0008C10E0008C10E000800000000FB
:10008000C10E00080000000000000000C10E0008C2
:1000900000000000C10E0008C10E0008C10E0008DB
:1000A000C10E0008C10E0008C10E0008C10E0008F4
:0800B000C10E00080000000071
:1000B8000448054B10B5834203D0044B002B00D0F5
:1000C800984710BD0C0000200C0000200000000024
:1000D80006480749091A8B10C90FC91810B54910E5
:1000E80003D0044B002B00D0984710BD0C00002013
:1000F8000C0000200000000010B5074C2378002BEE
:1001080009D1FFF7D5FF054B002B02D0044800E0CA
:1001180000BF0123237010BD0C0000200000000068
:10012800C40E0008054B10B5002B03D00449054840
:1001380000E000BFFFF7CCFF10BDC0460000000084
:1001480010000020C40E000870B50C4D0C4E761B34
:10015800B61005D0002408CD01349847A642FAD13C
:1001680000F0ACFE074D084E761BB61005D00024F3
:1001780008CD01349847A642FAD170BD1C0F00087B
:100188001C0F00081C0F0008200F0008F0B5050020
:1001980083074AD0541E002A44D0CEB2030003225B
:1001A80002E00135013C3DD301332E701342F8D1F2
:1001B800032C2FD9FF220A40150215432A041543A0
:1001C8000F2C35D92700103F3F093E01B4461E00C9
:1001D8001A0010366644156055609560D560103277
:1001E800B242F8D10F260C2201373F012640DB1915
:1001F8003700224217D03E1FB608B400A4461A00A2
:100208001C1D644420C2A242FCD103240136B6005E
:100218009B193C40002C05D0C9B21C191970013338
:100228009C42FBD1F0BD3400F4E714000300BFE7A3
:100238002700E0E7002243088B4274D303098B426E
:100248005FD3030A8B4244D3030B8B4228D3030C9E
:100258008B420DD3FF22090212BA030C8B4202D340
:100268001212090265D0030B8B4219D300E0090A68
:10027800C30B8B4201D3CB03C01A5241830B8B4271
:1002880001D38B03C01A5241430B8B4201D34B035A
:10029800C01A5241030B8B4201D30B03C01A5241BF
:1002A800C30A8B4201D3CB02C01A5241830A8B4244
:1002B80001D38B02C01A5241430A8B4201D34B022D
:1002C800C01A5241030A8B4201D30B02C01A524191
:1002D800CDD2C3098B4201D3CB01C01A5241830945
:1002E8008B4201D38B01C01A524143098B4201D37F
:1002F8004B01C01A524103098B4201D30B01C01AAA
:100308005241C3088B4201D3CB00C01A5241830823
:100318008B4201D38B00C01A524143088B4201D350
:100328004B00C01A5241411A00D2014652411046B0
:100338007047FFE701B5002000F006F802BDC0468F
:100348000029F7D076E770477047C04630B587B0C8
:100358001422002101A8FFF719FF0E4B5A6B012444
:1003680022435A635B6B23400093009BA025ED0555
:1003780000228021280000F029F9802301930294AB
:1003880000230393049301A9280000F055F807B04F
:1003980030BDC0460010024010B592B03422002192
:1003A80005A8FFF7F3FE1022002101A8FFF7EEFED3
:1003B8008020800000F088FC02230593FE33089318
:1003C80000240994C03B0A930C9405A800F004F992
:1003D80007230193029403940494002101A800F0D8
:1003E800ADFB12B010BD10B500F010FDFFF7D4FF43
:1003F800FFF7ACFFFEE77047FEE77047704710B5A0
:1004080000F018FD10BD000082B00A4B196C0122E3
:1004180011431964196C0A400092009ADA6B802122
:1004280049050A43DA63DB6B0B400193019B02B079
:100438007047C04600100240F0B5D6464F464646C3
:10044800C0B500233BE0032600E00026A6403400A8
:100458003C435A4E1832920094518022B4584A466E
:10046800D24326004D46AE434D68ED0302D54D46B6
:100478002C432600514C8027E6518426A459260097
:1004880016404D68AD0302D54D462C4326004B4C13
:100498008427E6512468260016404D68ED0202D5EF
:1004A8004D462C432600454C2660646822404D6822
:1004B800AD0201D54A462243404C626001330C68C4
:1004C8002200DA4075D001229A4025001540A9463D
:1004D8001442F3D04C68022C01D0122C0ED1DC0847
:1004E8000834A400275807261E40B6000F25B5403B
:1004F800AF430D69B5402E003E4326500468A4461C
:100508005E000324A2462700B740B846FF4365466D
:100518004446A543AC464C68554625402C00B4409B
:1005280065462C4304604C68651E012D03D9112CC7
:1005380001D0122C13D184683C40A446CC68B44046
:1005480065462C4384604468944322004C6824091F
:10055800A446012465462C409C4014434460C2686C
:1005680017408A68B2403A43C2604A68D200A5D5AB
:100578009A0814001834A400104EA75903241C40EC
:10058800E4000F26A640B743A026F605B04200D1E6
:100598005BE70B4EB04208D00A4EB04207D00A4E75
:1005A800B04200D14FE7052650E701264EE7022664
:1005B8004CE71CBC90469946A246F0BD0018024084
:1005C8000004005000080050000C0050002A01D020
:1005D800816170478162FCE770B582B0041E00D16A
:1005E8002CE20368DB0739D5C14A916838230B40F0
:1005F800D16803220A40102B26D0082B26D0636826
:100608008022520293427FD0A022D202934200D18C
:1006180081E0B74B1A68B7490A401A601A68B649A8
:100628000A401A606368002B00D180E000F00EFCDD
:100638000500AF4B1B689B0310D400F007FC401B60
:100648006428F6D90320FAE1032AD6D1A84B1B68FF
:100658009B0303D56368002B00D1F2E123689B0755
:1006680031D5A34A936838210B40D16803220A4048
:10067800102B6AD0002B6BD19D4A1268520503D506
:10068800E268002A00D1DEE1994842689B490A40A5
:10069800616909020A434260002B0DD10368984939
:1006A8000B4021690B4303600368DB0A07221A40E9
:1006B800944BD340944A1360944B186800F07AFB2B
:1006C800002800D0C1E123681B0700D481E0884BD3
:1006D8009A6838231340182B73D0A369002B00D1D4
:1006E800B4E0834A136E01210B43136600F0AEFB9E
:1006F80005007F4B1B6E9B076BD400F0A7FB401BCC
:100708000228F6D903209AE1794A116880235B020E
:100718000B43136086E7764B19688022D2020A439E
:100728001A601968802252020A431A607AE700F0B8
:100738008DFB05006E4B1B689B038FD500F086FB75
:10074800401B6428F6D9032079E1022A92D193E765
:10075800E368002B22D0664A136869490B40216977
:100768000B431360116880235B000B43136000F098
:100778006DFB05005E4B1B685B0506D400F066FB4D
:10078800401B0228F6D9032059E159494B685B4AB6
:1007980013406269120213434B6094E7544A13688A
:1007A8005B490B40136000F051FB0500504B1B6880
:1007B8005B0588D500F04AFB401B0228F6D90320C8
:1007C8003DE14B4B1B6E9B0703D5A369002B00D162
:1007D8003DE123685B0700D4A2E0454B9A683823C3
:1007E8001340202B45D0424BDB6BDB004AD4404AF8
:1007F800D16B802040050143D163D36B0340019343
:10080800019B0125434B1B68DB053DD5A368012BE4
:100818004ED0052B52D0364BDA6D01218A43DA656A
:10082800DA6D03318A43DA65A368002B50D000F0F3
:100838000DFB06002E4BDB6D9B076FD400F006FB0B
:10084800801B354B9842F5D90320F8E0284A136EEF
:1008580001218B43136600F0F9FA0500244B1B6E47
:100868009B07B6D500F0F2FA401B0228F6D9032000
:10087800E5E01F4BDB6D9B0752D5A368002B4FD1DA
:100888000120DCE00025BDE7224A116880235B00D7
:100898000B43136000F0DAFA06001E4B1B68DB05F9
:1008A800B4D400F0D3FA801B0228F6D90320C6E09E
:1008B8000F4AD36D01210B43D365B5E70C4BDA6DB5
:1008C80004210A43DA65DA6D03390A43DA65ABE7CE
:1008D80000F0BCFA0600064BDB6D9B071ED500F046
:1008E800B5FA801B0C4B9842F5D90320A7E0C04607
:1008F80000100240FFFFFEFFFFFFFBFFFF80FFFF2E
:10090800FFC7FFFF0024F4000800002004000020B7
:10091800FFFEFFFF0070004088130000012D26D065
:10092800E369002B00D194E0514A916838220A40CB
:10093800102A61D0022B20D04D4B1A684D490A402D
:100948001A60DA6803218A43DA60DA684A490A4099
:10095800DA6000F07BFA0400454B1B689B0149D51F
:1009680000F074FA001B0228F6D9032067E0404A19
:10097800D36B42490B40D363D2E73D4A13683D49E4
:100988000B40136000F062FA0500394B1B689B01AD
:1009980006D500F05BFA401B0228F6D903204EE08A
:1009A800334AD36836491940236A606A0343A06A08
:1009B80000020343E06A0343206B03430B43D36005
:1009C800116880235B040B431360D16880235B05A7
:1009D8000B43D36000F03AFA0400254B1B689B01D7
:1009E80006D400F033FA001B0228F6D9032026E0CB
:1009F800002024E0002022E0012B2CD01C4BDA68D8
:100A080003231340216A8B4227D170231340616A64
:100A18008B4224D1FE21C9011140A36A1B029942CD
:100A28001FD1F8239B031340E16A8B421BD1520F5D
:100A38005207236B9A4218D1002000E0012002B02F
:100A480070BD0120FBE70120F9E70120F7E701204D
:100A5800F5E70020F3E70120F1E70120EFE70120A7
:100A6800EDE70120EBE70120E9E70120E7E7C046D1
:100A780000100240FFFFFFFEFFFFFEEFFFFFFFEF4A
:100A88008C80C11F10B52A4B9B6838221A4207D1A7
:100A9800274B1A68D20A072313402648D84010BDAE
:100AA800234B9A6838231340082B3BD0204B9A6875
:100AB80038231340102B0DD01D4B9A683823134050
:100AC800202B31D01A4B9A6838231340182B26D084
:100AD8000020E4E7164AD1680D3B0B40D2681209A2
:100AE800072111400131032B0FD01248FFF7A2FB59
:100AF8000F4BDA68120A7F23134058430C4BD9680E
:100B0800490F0131FFF796FBC9E70B48FFF792FB46
:100B1800074BDA68120A7F2313405843EEE7FA209E
:100B2800C001BCE70448BAE780200002B7E7C04626
:100B3800001002400024F40000127A0070B504008E
:100B48000D00002800D1AAE0574B1A68072313406C
:100B58008B4221D323689A070ED55B0705D5534AE4
:100B68009168E023DB010B439360504A9368504936
:100B78000B40A1680B4393602368DB0754D5636877
:100B8800012B20D0022B3BD0002B3FD1474A1268C3
:100B980052051CD401206AE0434A136807218B439D
:100BA8002B43136000F052F906003F4B1A680723E5
:100BB8001340AB42CED000F049F9801B3D4A904229
:100BC800F3D9032053E0394A1268920369D53749AB
:100BD8008A680720824313438B6000F037F90600C8
:100BE800324B9B6838221A406368DB009A421BD05C
:100BF80000F02CF9801B2F4B9842F1D9032036E0E6
:100C08002A4A12689201E2D4012030E0032B05D071
:100C1800264AD26D9207DAD4012028E0234A126EC0
:100C28009207D4D4012022E01F4B1A6807231340EF
:100C3800AB421DD823685B0706D51C4A93681E493A
:100C48000B40E1680B439360FFF71CFF174B9A6852
:100C5800120A0F2313409B00184A9A581F23134067
:100C6800D840174B1860174B186800F0A3F870BDF0
:100C78000D4A136807218B432B43136000F0E6F8F5
:100C88000600094B1A6807231340AB42D2D000F084
:100C9800DDF8801B074B9842F3D90320E7E70120D2
:100CA800E5E70120E3E7C0460020024000100240CB
:100CB800FFF0FFFF88130000FF8FFFFFDC0E000826
:100CC800080000200400002010B5104A13681049DD
:100CD8000B400343136080239B00984201D00020FF
:100CE80010BD0C4B1B685800C01840000A49FFF79C
:100CF800A1FA0130054B5B695B0503D5002803D0D9
:100D08000138F7E70020EBE70320E9E7007000402F
:100D1800FFF9FFFF0800002040420F0070B50028CF
:100D280011DB8308134EC0339B009D5903242040D8
:100D3800C000FF2214008440A54389010A40824074
:100D48002A439A5170BD0F230340083B9B08063382
:100D58009B00094A944663445C6803221040C00023
:100D6800FC3215008540AC4389010A408240224389
:100D78005A60E7E700E100E000ED00E00138802379
:100D88005B0498420FD2094A50600948036A1B0263
:100D98001B0AC02109060B43036200239360073333
:100DA8001360002070470120FCE7C04610E000E017
:100DB80000ED00E010B50400114B1968002901D1BD
:100DC800012010BDFA208000FFF734FA01000D4B16
:100DD8001868FFF72FFAFFF7D1FF00280DD1032C71
:100DE80001D90120EDE70130002221004042FFF740
:100DF80095FF054B1C600020E3E70120E1E7C046B2
:100E080000000020080000200400002010B5084A57
:100E1800116880235B000B4313600020FFF7CAFFB3
:100E2800041E02D00124200010BDFFF7EDFAFAE7F6
:100E380000200240034A1368034909685B181360DD
:100E48007047C0462800002000000020014B1868A9
:100E58007047C04628000020024B802212059A6085
:100E68007047C04600ED00E00D488546002103E0CC
:100E78000C4B5B58435004310B480C4B42189A42B8
:100E8800F6D30B4A02E0002313600432094B9A425E
:100E9800F9D3FFF7E1FFFFF757F9FFF7A4FAFEE7E9
:100EA80000200020240F0008000000200C00002073
:100EB8000C0000202C000020FEE70000F8B5C0461A
:100EC800F8BC08BC9E467047F8B5C046F8BC08BCDC
:040ED8009E4670477B
:100EDC000000000000000000000000000000000006
:100EEC0000000000000000000000000000000000F6
:100EFC0001000000020000000300000004000000DC
:100F0C0006000000070000000800000009000000B7
:040F1C002D0100089B
:040F200001010008C3
:0C0F240001000000040000000024F400A4
:0400000508000E7170
:00000001FF
