:100000000EC028C027C026C025C024C023C022C0DF
:1000100021C020C01FC01EC01DC01CC01BC0112499
:100020001FBECFE5D1E0DEBFCDBF10E0A0E6B0E05F
:10003000ECEEF1E002C005900D92A838B107D9F7B7
:1000400020E0A8E8B0E001C01D92A938B207E1F7AE
:10005000A0D0CAC0D5CF70E0FB01E05AFF4F80812D
:1000600088BBFB01EC58FF4F808187BB08950F933D
:100070001F93CF938C01C0E06C2FC801ECDFCF5FE2
:10008000C531D1F7CF911F910F91089517BA18BAC2
:1000900008950F931F93CF938C01662371F0C0E0F6
:1000A0006C2FC801D8DF87EA91E60197F1F700C00D
:1000B0000000CF5FC531A1F70CC0C4E16C2FC801AF
:1000C000CADF87EA91E60197F1F700C00000C1504E
:1000D000F5CFCF911F910F910895DF92EF92FF928C
:1000E0000F931F93CF93DF937C018B01842F65E0E7
:1000F00054D0D82EC0E0D0E0040F111DF8012081AB
:100100000C2E01C0220F0A94EAF724FF04C06C2FC2
:100110006D0DC701A0DF2196C530D10579F7DF91BC
:10012000CF911F910F91FF90EF90DF900895EF9284
:10013000FF920F931F93CF938C017B01C0E04C2F54
:10014000B701C801CADFCF5FC430C9F7CF911F9193
:100150000F91FF90EF9008950F931F93CF93DF932C
:10016000122FFB01DA01EB01A0962081318142813F
:10017000538164817581868197813896012F18D0CB
:100180002D93EC17FD0789F7DF91CF911F910F9108
:10019000089588E890E06BDFFCCF002480FD060E18
:1001A000660F11F08695D1F7802D089597FB10F812
:1001B000169400080F93083098F00850232F342F1E
:1001C000452F562F672F782F892F902DF4CF059428
:1001D000979587957795679557954795379527957F
:0C01E0000A95AAF70F910895F894FFCF3C
:1001EC0002040110080204011008020401100802A4
:1001FC00040110080A0C091818121411110903052E
:08020C0005140C060603120A9A
:00000001FF
